:020000040000FA
:020000000528D1
:040002000034003492
:020008002228AC
:06000A008316FF308600A2
:1000100083160317880183160317890183160313B8
:10002000003088004030810083160313F0309600C2
:10003000831203138801831288308B000B10000099
:1000400064001F28F0000308F1000B1C5928060863
:10005000F2000B10731E3528721A35280816053069
:10006000A0000000A00B31280812F31E4028F21A4D
:10007000402888160530A0000000A00B3C288812FC
:10008000731F4B28721B4B2808170530A000000077
:10009000A00B47280813F31F5628F21B5628881771
:1000A0000530A0000000A00B522888137208F3004E
:0C00B000592871088300F00E700E090042
:02400E00E423A9
:02401000FF3E71
:00000001FF
